{
  "contractName": "Election",
  "abi": [
    {
      "inputs": [],
      "payable": false,
      "stateMutability": "nonpayable",
      "type": "constructor"
    },
    {
      "anonymous": false,
      "inputs": [
        {
          "indexed": true,
          "internalType": "uint256",
          "name": "_candidateId",
          "type": "uint256"
        }
      ],
      "name": "votedEvent",
      "type": "event"
    },
    {
      "constant": true,
      "inputs": [
        {
          "internalType": "uint256",
          "name": "",
          "type": "uint256"
        }
      ],
      "name": "candidates",
      "outputs": [
        {
          "internalType": "uint256",
          "name": "id",
          "type": "uint256"
        },
        {
          "internalType": "string",
          "name": "name",
          "type": "string"
        },
        {
          "internalType": "uint256",
          "name": "voteCount",
          "type": "uint256"
        }
      ],
      "payable": false,
      "stateMutability": "view",
      "type": "function"
    },
    {
      "constant": true,
      "inputs": [],
      "name": "candidatesCount",
      "outputs": [
        {
          "internalType": "uint256",
          "name": "",
          "type": "uint256"
        }
      ],
      "payable": false,
      "stateMutability": "view",
      "type": "function"
    },
    {
      "constant": true,
      "inputs": [],
      "name": "productIndex",
      "outputs": [
        {
          "internalType": "uint256",
          "name": "",
          "type": "uint256"
        }
      ],
      "payable": false,
      "stateMutability": "view",
      "type": "function"
    },
    {
      "constant": true,
      "inputs": [
        {
          "internalType": "address",
          "name": "",
          "type": "address"
        }
      ],
      "name": "voters",
      "outputs": [
        {
          "internalType": "bool",
          "name": "",
          "type": "bool"
        }
      ],
      "payable": false,
      "stateMutability": "view",
      "type": "function"
    },
    {
      "constant": false,
      "inputs": [
        {
          "internalType": "uint256",
          "name": "_candidateId",
          "type": "uint256"
        }
      ],
      "name": "vote",
      "outputs": [],
      "payable": false,
      "stateMutability": "nonpayable",
      "type": "function"
    },
    {
      "constant": false,
      "inputs": [
        {
          "internalType": "string",
          "name": "_name",
          "type": "string"
        },
        {
          "internalType": "string",
          "name": "_candidateOne",
          "type": "string"
        },
        {
          "internalType": "string",
          "name": "_candidateTwo",
          "type": "string"
        },
        {
          "internalType": "uint256",
          "name": "_startTime",
          "type": "uint256"
        },
        {
          "internalType": "uint256",
          "name": "_endTime",
          "type": "uint256"
        },
        {
          "internalType": "uint256",
          "name": "_productCondition",
          "type": "uint256"
        }
      ],
      "name": "addProductToStore",
      "outputs": [],
      "payable": false,
      "stateMutability": "nonpayable",
      "type": "function"
    },
    {
      "constant": true,
      "inputs": [
        {
          "internalType": "uint256",
          "name": "_productId",
          "type": "uint256"
        }
      ],
      "name": "getProduct",
      "outputs": [
        {
          "internalType": "uint256",
          "name": "",
          "type": "uint256"
        },
        {
          "internalType": "string",
          "name": "",
          "type": "string"
        },
        {
          "internalType": "string",
          "name": "",
          "type": "string"
        },
        {
          "internalType": "string",
          "name": "",
          "type": "string"
        },
        {
          "internalType": "uint256",
          "name": "",
          "type": "uint256"
        },
        {
          "internalType": "uint256",
          "name": "",
          "type": "uint256"
        },
        {
          "internalType": "enum Election.ProductCondition",
          "name": "",
          "type": "uint8"
        },
        {
          "internalType": "address",
          "name": "",
          "type": "address"
        }
      ],
      "payable": false,
      "stateMutability": "view",
      "type": "function"
    }
  ],
  "bytecode": "0x60806040523480156200001157600080fd5b50620000586040518060400160405280600b81526020017f43616e6469646174652031000000000000000000000000000000000000000000815250620000ab60201b60201c565b6200009e6040518060400160405280600b81526020017f43616e6469646174652032000000000000000000000000000000000000000000815250620000ab60201b60201c565b60008081905550620001d8565b6005600081548092919060010191905055506040518060600160405280600554815260200182815260200160008152506003600060055481526020019081526020016000206000820151816000015560208201518160010190805190602001906200011892919062000129565b506040820151816002015590505050565b828054600181600116156101000203166002900490600052602060002090601f016020900481019282601f106200016c57805160ff19168380011785556200019d565b828001600101855582156200019d579182015b828111156200019c5782518255916020019190600101906200017f565b5b509050620001ac9190620001b0565b5090565b620001d591905b80821115620001d1576000816000905550600101620001b7565b5090565b90565b610f9380620001e86000396000f3fe608060405234801561001057600080fd5b506004361061007d5760003560e01c80636f564bb31161005b5780636f564bb314610183578063a3ec138d1461038a578063b9db15b4146103e6578063c897d5a6146105c25761007d565b80630121b93f146100825780632d35a8a2146100b05780633477ee2e146100ce575b600080fd5b6100ae6004803603602081101561009857600080fd5b81019080803590602001909291905050506105e0565b005b6100b86107d2565b6040518082815260200191505060405180910390f35b6100fa600480360360208110156100e457600080fd5b81019080803590602001909291905050506107d8565b6040518084815260200180602001838152602001828103825284818151815260200191508051906020019080838360005b8381101561014657808201518184015260208101905061012b565b50505050905090810190601f1680156101735780820380516001836020036101000a031916815260200191505b5094505050505060405180910390f35b610388600480360360c081101561019957600080fd5b81019080803590602001906401000000008111156101b657600080fd5b8201836020820111156101c857600080fd5b803590602001918460018302840111640100000000831117156101ea57600080fd5b91908080601f016020809104026020016040519081016040528093929190818152602001838380828437600081840152601f19601f8201169050808301925050505050505091929192908035906020019064010000000081111561024d57600080fd5b82018360208201111561025f57600080fd5b8035906020019184600183028401116401000000008311171561028157600080fd5b91908080601f016020809104026020016040519081016040528093929190818152602001838380828437600081840152601f19601f820116905080830192505050505050509192919290803590602001906401000000008111156102e457600080fd5b8201836020820111156102f657600080fd5b8035906020019184600183028401116401000000008311171561031857600080fd5b91908080601f016020809104026020016040519081016040528093929190818152602001838380828437600081840152601f19601f82011690508083019250505050505050919291929080359060200190929190803590602001909291908035906020019092919050505061089a565b005b6103cc600480360360208110156103a057600080fd5b81019080803573ffffffffffffffffffffffffffffffffffffffff169060200190929190505050610ab3565b604051808215151515815260200191505060405180910390f35b610412600480360360208110156103fc57600080fd5b8101908080359060200190929190505050610ad3565b6040518089815260200180602001806020018060200188815260200187815260200186600181111561044057fe5b60ff1681526020018573ffffffffffffffffffffffffffffffffffffffff1673ffffffffffffffffffffffffffffffffffffffff16815260200184810384528b818151815260200191508051906020019080838360005b838110156104b2578082015181840152602081019050610497565b50505050905090810190601f1680156104df5780820380516001836020036101000a031916815260200191505b5084810383528a818151815260200191508051906020019080838360005b838110156105185780820151818401526020810190506104fd565b50505050905090810190601f1680156105455780820380516001836020036101000a031916815260200191505b50848103825289818151815260200191508051906020019080838360005b8381101561057e578082015181840152602081019050610563565b50505050905090810190601f1680156105ab5780820380516001836020036101000a031916815260200191505b509b50505050505050505050505060405180910390f35b6105ca610e4d565b6040518082815260200191505060405180910390f35b600460003373ffffffffffffffffffffffffffffffffffffffff1673ffffffffffffffffffffffffffffffffffffffff16815260200190815260200160002060009054906101000a900460ff16156106a0576040517f08c379a000000000000000000000000000000000000000000000000000000000815260040180806020018281038252601d8152602001807f5468697320566f7465722068617320616c726561647920766f7465642e00000081525060200191505060405180910390fd5b6000811180156106b257506005548111155b610724576040517f08c379a000000000000000000000000000000000000000000000000000000000815260040180806020018281038252601a8152602001807f5468657265206973206e6f20737563682063616e64696461746500000000000081525060200191505060405180910390fd5b6001600460003373ffffffffffffffffffffffffffffffffffffffff1673ffffffffffffffffffffffffffffffffffffffff16815260200190815260200160002060006101000a81548160ff0219169083151502179055506003600082815260200190815260200160002060020160008154809291906001019190505550807ffff3c900d938d21d0990d786e819f29b8d05c1ef587b462b939609625b684b1660405160405180910390a250565b60055481565b6003602052806000526040600020600091509050806000015490806001018054600181600116156101000203166002900480601f01602080910402602001604051908101604052809291908181526020018280546001816001161561010002031660029004801561088a5780601f1061085f5761010080835404028352916020019161088a565b820191906000526020600020905b81548152906001019060200180831161086d57829003601f168201915b5050505050908060020154905083565b600160008082825401925050819055506108b2610e53565b60405180610100016040528060005481526020018881526020018781526020018681526020018581526020018481526020018360018111156108f057fe5b60018111156108fb57fe5b8152602001600073ffffffffffffffffffffffffffffffffffffffff16815250905080600160003373ffffffffffffffffffffffffffffffffffffffff1673ffffffffffffffffffffffffffffffffffffffff168152602001908152602001600020600080548152602001908152602001600020600082015181600001556020820151816001019080519060200190610995929190610eb9565b5060408201518160020190805190602001906109b2929190610eb9565b5060608201518160030190805190602001906109cf929190610eb9565b506080820151816004015560a0820151816005015560c08201518160060160006101000a81548160ff02191690836001811115610a0857fe5b021790555060e08201518160060160016101000a81548173ffffffffffffffffffffffffffffffffffffffff021916908373ffffffffffffffffffffffffffffffffffffffff16021790555090505033600260008054815260200190815260200160002060006101000a81548173ffffffffffffffffffffffffffffffffffffffff021916908373ffffffffffffffffffffffffffffffffffffffff16021790555050505050505050565b60046020528060005260406000206000915054906101000a900460ff1681565b60006060806060600080600080610ae8610e53565b60016000600260008d815260200190815260200160002060009054906101000a900473ffffffffffffffffffffffffffffffffffffffff1673ffffffffffffffffffffffffffffffffffffffff1673ffffffffffffffffffffffffffffffffffffffff16815260200190815260200160002060008b81526020019081526020016000206040518061010001604052908160008201548152602001600182018054600181600116156101000203166002900480601f016020809104026020016040519081016040528092919081815260200182805460018160011615610100020316600290048015610c1a5780601f10610bef57610100808354040283529160200191610c1a565b820191906000526020600020905b815481529060010190602001808311610bfd57829003601f168201915b50505050508152602001600282018054600181600116156101000203166002900480601f016020809104026020016040519081016040528092919081815260200182805460018160011615610100020316600290048015610cbc5780601f10610c9157610100808354040283529160200191610cbc565b820191906000526020600020905b815481529060010190602001808311610c9f57829003601f168201915b50505050508152602001600382018054600181600116156101000203166002900480601f016020809104026020016040519081016040528092919081815260200182805460018160011615610100020316600290048015610d5e5780601f10610d3357610100808354040283529160200191610d5e565b820191906000526020600020905b815481529060010190602001808311610d4157829003601f168201915b5050505050815260200160048201548152602001600582015481526020016006820160009054906101000a900460ff166001811115610d9957fe5b6001811115610da457fe5b81526020016006820160019054906101000a900473ffffffffffffffffffffffffffffffffffffffff1673ffffffffffffffffffffffffffffffffffffffff1673ffffffffffffffffffffffffffffffffffffffff16815250509050806000015181602001518260400151836060015184608001518560a001518660c001518760e001518696508595508494509850985098509850985098509850985050919395975091939597565b60005481565b60405180610100016040528060008152602001606081526020016060815260200160608152602001600081526020016000815260200160006001811115610e9657fe5b8152602001600073ffffffffffffffffffffffffffffffffffffffff1681525090565b828054600181600116156101000203166002900490600052602060002090601f016020900481019282601f10610efa57805160ff1916838001178555610f28565b82800160010185558215610f28579182015b82811115610f27578251825591602001919060010190610f0c565b5b509050610f359190610f39565b5090565b610f5b91905b80821115610f57576000816000905550600101610f3f565b5090565b9056fea265627a7a72315820e131dae9fa32ad2eb2ad13cc31b4706f5a4a91da3282f93ce36dbd554153013a64736f6c63430005100032",
  "source": "pragma solidity >=0.4.22 <0.8.0;\r\n\r\ncontract Election {\r\n\r\n    enum ProductCondition {New, Used}\r\n      \r\n      uint public productIndex;\r\n//Model a Candidate\r\n    struct Candidate {\r\n        uint id;\r\n        string name;\r\n        uint voteCount;\r\n\r\n    }\r\n//////\r\n\r\nmapping (address => mapping(uint => Product)) stores;\r\nmapping (uint => address) productIdInStore;\r\n\r\nstruct Product {\r\n\r\n    uint id;\r\n    string name;\r\n    string candidateOne;\r\n    string candidateTwo;\r\n    uint startTime;\r\n    uint endTime;\r\n    ProductCondition condition;\r\n    address adder;\r\n    \r\n    }\r\n/////\r\n\r\n// R/W Candidates\r\nmapping(uint => Candidate) public candidates;\r\n// key <-> value candidates array에 구조체의 값을 매핑.\r\n//Store accounts that have voted\r\nmapping(address => bool) public voters;\r\n\r\n// event Voted 투표후 페이지를 리프레시\r\n\r\nevent votedEvent (\r\n    uint indexed _candidateId\r\n);\r\n\r\n// Store Candidates Count \r\nuint public candidatesCount;\r\n\r\n\r\n constructor() public {\r\n        addCandidate(\"Candidate 1\");\r\n        addCandidate(\"Candidate 2\");\r\n        productIndex = 0;\r\n    }\r\n// add Election information\r\n\r\n\r\n\r\n// add Candidate\r\n\r\n function addCandidate (string memory _name) private {\r\n     candidatesCount ++;\r\n     candidates[candidatesCount] = Candidate(candidatesCount, _name, 0);\r\n\r\n     // Candidate(id = candidatesCount, name = _name, 0);\r\n }\r\n\r\n// 투표자의 중복투표 확인용 함수.\r\n function vote (uint _candidateId) public {\r\n     //require that they haven't voted before\r\n     require(!voters[msg.sender],\"This Voter has already voted.\");\r\n\r\n     //require a valid candidate\r\n     require(_candidateId > 0 && _candidateId <= candidatesCount, \"There is no such candidate\");\r\n\r\n     // record that voter has voted\r\n     voters[msg.sender] = true;\r\n\r\n     //update candidate vote Count\r\n     candidates[_candidateId].voteCount++;\r\n     \r\n     \r\n     // mapping 변수에서 candidate struct를 읽어와 후보자의 투표수를 증가시키는것.\r\n\r\n     // trigger voted event;\r\n     emit votedEvent(_candidateId);\r\n }\r\n\r\n ///\r\nfunction addProductToStore(string memory _name,\r\n    string memory _candidateOne, string memory _candidateTwo, uint _startTime, uint _endTime,\r\n    uint _productCondition) public {\r\n\r\n        productIndex += 1;\r\n        Product memory product = Product(productIndex, _name, _candidateOne, \r\n        _candidateTwo, _startTime, _endTime , ProductCondition(_productCondition), address(0));\r\n    // 변수가 저장포인터로 저장됨. 컨트랙트 상태저장소, 임시값 메모리 컴파일러는\r\n    // 구조체가 메모리인지 스토리지인지 확인함.\r\n    // 구조체를 스토어에 추가하고 상품 ID를 추가한 사람의 이력을 확인하ㅣ.\r\n\r\n    stores[msg.sender][productIndex] = product;\r\n    productIdInStore[productIndex] = msg.sender;\r\n    }\r\n\r\n    function getProduct(uint _productId) public view returns (uint, string memory, string memory,\r\n    string memory , uint, uint, ProductCondition, address) {\r\n\r\n       Product memory product = stores[productIdInStore[_productId]][_productId];\r\n\r\n      return (product.id, product.name, product.candidateOne, \r\n      product.candidateTwo, product.startTime, product.endTime, \r\n      product.condition, product.adder);\r\n\r\n    } \r\n ///\r\n\r\n}\r\n\r\n\r\n// Election.deployed().then(function(instance) { app = instance })\r\n// 인스턴스 조회용 함수\r\n\r\n\r\n",
  "sourcePath": "C:/Users/YUN/Challenge/vote_dapp/election/contracts/Election.sol",
  "compiler": {
    "name": "solc",
    "version": "0.5.16+commit.9c3226ce.Emscripten.clang"
  },
  "schemaVersion": "3.4.1",
  "updatedAt": "2021-06-15T03:33:36.325Z",
  "networkType": "ethereum",
  "devdoc": {
    "methods": {}
  },
  "userdoc": {
    "methods": {}
  }
}